:104000000000012061AE000089AE00008BAE000010
:104010008DAE00008FAE000091AE000000000000E9
:1040200000000000000000000000000093AE00004F
:1040300095AE00000000000097AE000099AE0000B1
:104040009BAE0000ED8600009BAE0000617E00008C
:104050009BAE00009BAE00004D5000009BAE0000E8
:104060009BAE00009BAE0000818200009BAE000072
:104070009BAE00009BAE00009BAE00009BAE00001C
:104080009BAE00009BAE00009BAE00009BAE00000C
:104090009BAE00009BAE00009BAE00009BAE0000FC
:1040A0009BAE00009BAE0000E5810000695200005D
:1040B000415200009BAE0000000000000000000024
:1040C0009BAE00009BAE00009BAE00009BAE0000CC
:1040D0009BAE00009BAE00009D4F00000000000062
:1040E00000000000000000000000000000000000D0
:1040F00000000000000000000000000000000000C0
:1041000000000000000000000000000000000000AF
:10411000000000000000000000000000000000009F
:10412000000000000000000000000000000000008F
:10413000000000000000000000000000000000007F
:10414000000000000000000000000000000000006F
:10415000000000000000000000000000000000005F
:10416000000000000000000000000000000000004F
:10417000000000000000000000000000000000003F
:10418000000000000000000000000000000000002F
:10419000000000000000000000000000000000001F
:1041A000000000000000000000000000000000000F
:1041B00000000000000000000000000000000000FF
:1041C00000000000000000000000000000000000EF
:1041D00000000000000000000000000000000000DF
:1041E00000000000000000000000000000000000CF
:1041F00000000000000000000000000000000000BF
:1042000010B5054C237833B9044B13B10448AFF310
:1042100000800123237010BDEC000020000000008E
:10422000B0C5000008B5034B1BB103490348AFF309
:10423000008008BD00000000F0000020B0C50000B4
:10424000154B002B08BF134B9D46A3F5803A002168
:104250008B460F461348144A121A06F0ADFF0F4B57
:10426000002B00D098470E4B002B00D09847002021
:10427000002104000D000D48002802D00C48AFF3C7
:10428000008006F075FF2000290000F0C9F806F054
:104290005BFF00BF000008000000012000000000DC
:1042A00000000000EC000020C049002000000000D9
:1042B000000000004FF080430022C3F800210122DB
:1042C0001A60D3F80021002AFBD0704738B503F0FC
:1042D0002BFF2D4B1A68821AB2F5487F01D918605E
:1042E00038BD2A4C00221A60A37A991E012945D8AC
:1042F000A272A07A03F02AFAA37A022B12D1032524
:1043000000210846FF2201F061F8C82003F0EAFF0F
:1043100000221046114601F059F8C82003F0E2FFD0
:10432000013DEDD1A37A93B9032500221046FF2168
:1043300001F04CF8C82003F0D5FF002210461146CA
:1043400001F044F8C82003F0CDFF013DEDD1A37A80
:10435000012BC5D1032400221146FF2001F036F8BD
:10436000C82003F0BFFF00221046114601F02EF8CE
:10437000C82003F0B7FF013CEDD1B1E713B9012329
:10438000A372B6E70223FBE71C010020940F002074
:1043900010B5224CE37A4BBB0120E07200F050FED6
:1043A000E47A2CBBFF221146204601F00FF84FF4AF
:1043B000967003F097FF22462146204601F006F84A
:1043C000C82003F08FFFFF221146204600F0FEFFB9
:1043D0004FF4967003F086FF00221046114600F05D
:1043E000F5FF6420BDE8104003F07CBF0020D4E757
:1043F000FF210846002200F0E9FF4FF4967003F019
:1044000071FF00221146104600F0E0FFC82003F0C3
:1044100069FFFF2100220846D8E700BF940F002063
:104420002DE9F84FD04CFFF745FF03F023FE01F0D4
:1044300091FA01F003FC01F0F9FA01F059FB237E37
:10444000E27AA17A607A00F085FF002211464FF4EB
:104450009673FF2000F0DCFF4FF4967003F042FFEC
:10446000002210464FF49673FF2100F0D1FF4FF465
:10447000967003F037FF00214FF496730846FF2231
:1044800000F0C6FF4FF4967003F02CFF0022114697
:10449000104600F09BFF4FF4967003F023FF03F0EB
:1044A0009FFCA17C607C00F0F1FD00F055FE05460C
:1044B000002840F01381024601464FF47A73FF2032
:1044C00000F0A6FF4FF4966003F00CFFFF221046A9
:1044D0004FF47A73294600F09BFF4FF4966003F087
:1044E00001FF617D207D01F091F801F08DF9044616
:1044F000B0B9024601464FF47A73FF2000F088FFFE
:104500004FF4966003F0EEFEFF2108464FF47A73F5
:10451000224600F07DFF4FF4966003F0E3FE25464F
:10452000642003F0DFFE03F00DF803F017FB8F4B60
:10453000987A03F00BF965B1032400221046C823D2
:10454000FF2100F065FF4FF4C87003F0CBFE013C83
:10455000F3D101F0F9FA864C864B20804FF40032FB
:10456000C3F80425844E01221A60824F834BC7F89A
:10457000003603F0D9FD054601F0CAFA002800F024
:10458000BC80627A01232372002A40F0A980637202
:10459000E560E3686FF4FA72EB1A134440F2DA5202
:1045A000934204D80022FF21104600F00FFFE36879
:1045B000EB1AB3F5FA6F04D900221146FF2000F080
:1045C00005FF00F0BDFD002855D002F05BFFF36D44
:1045D000EB1A0A2B40F2B58000F0B0FF304602F033
:1045E000DFFF674BDFF89C81D3F80825DFF898B12F
:1045F000DFF89891DFF898A107EE902AFAEECF7ACB
:104600000122C6ED127A1A60B6F92410D8F80020FB
:10461000F56591420BD1B6F92610DBF800209142E6
:1046200005D1B6F92810D9F80020914203D003F043
:104630007BFDCAF80000B6F92630CBF80030B6F999
:104640002830C9F80030DAF80030B6F92420C8F86C
:104650000020EB1AB3F5FA7F0DD9DFF83891D9F8BD
:104660000030002B63D000F0FFFF10B10023C9F829
:104670000030CAF8005003F0CBF86368EB1AB3F5CA
:10468000FC7FFFF473AF2088C0EBC00701F05CFA39
:10469000381848BF0730C0F3CF00B0F5486F20800E
:1046A0006560BFF462AF42F210739D427FF65DAF6A
:1046B000142500221146FF2000F088FE322003F06E
:1046C00011FE00221046114600F080FE322003F059
:1046D00009FE013DEDD101F0CFF946E7012500E7E4
:1046E000E368EB1A1A3BB3F5ED7FBFF452AF00213C
:1046F000FF22084600F06AFE4BE7637A2072002B27
:104700003FF45FAFE3686072EB1A192B7FF659AF85
:10471000B3F5FA7F02D2FFF7D9FD52E7B3F5FA6F8E
:1047200002D2FFF735FE4CE701F0A6F949E701F0A8
:104730006BF800289FD10123C9F8003000F086FFF4
:1047400099E7052B97D9736EEB1AB3F59C7F03D3CA
:10475000756600F015FF8EE7336E40F23D22EB1ACE
:10476000934288BF356686E7780F0020940F0020BB
:10477000680F002000000140000F00203546526EF7
:1047800000C000401001002014010020180100208A
:104790000C010020080100202DE9F84344A5D5E9CB
:1047A00000450FF21419D9E900892DED028BB0EE06
:1047B000408A18EE100A07F0EBFA22462B4606460E
:1047C0000F4607F0AFFD002858D13DA7D7E9006795
:1047D0000FF2E409D9E9008918EE100A07F0D8FAB7
:1047E00032463B4604460D4607F0BAFD002850D13C
:1047F00035A3D3E900232046294607F021FB34A343
:10480000D3E9002306460F462046294607F018FB49
:1048100022462B4607F014FBB5EEC08AF1EE10FAE3
:1048200002460B46304639463ED507F053F907F0AD
:10483000E9FD08EE100A07F0ABFAB5EEC08AF1EE1A
:1048400010FA48BF18EE488A04460D4658BF18EEC5
:10485000088A18EE100A07F09BFA1FA3D3E9002379
:1048600007F0EEFA22462B4607F034F907F0CAFDAE
:10487000BDEC028B00EE100ABDE8F88342464B46C1
:104880003046394607F026F907F0BCFD08EE100A5D
:104890008FE742464B462046294607F019F907F0B4
:1048A000B1FD08EE100A97E707F012F9BFE700BF65
:1048B000F1D4C853FB2109C068A17454FB211940ED
:1048C000F1D4C853FB210940A662846C305FF43FE9
:1048D000592799622FF0D93FCDCCCCCCCCCCCC3F52
:1048E00008B510EE100A07F053FA07A3D3E9002326
:1048F00007F0F0F807F086FDBDE8084000EE100A6A
:10490000FFF74ABFAFF30080023C7152FB21F93F31
:10491000024B40001A6803F0C7BA00BF90020020A3
:10492000024B40001A6803F015BB00BF9002002044
:1049300008B5044B4000196840F0010003F034FB57
:1049400000B208BD90020020154B01210022C3F8DF
:104950000425C3F80815C3F810250222C3F8401532
:10496000C3F84415C3F800220E4AD07C0E4A42EA2E
:1049700000220E48C0F814250D4A2020C2F8040574
:10498000D2F8000840F02000C2F800080948C2F838
:104990003805A0F544503C38C2F83C051960704712
:1049A00000900040780F00200300130000600040DA
:1049B00000F00140409100402DE9F84F2DED0C8BA7
:1049C000DB4B1B780AEE101A1BB9DA4B186001207A
:1049D00085E1012B40F0E081D74DDFEDD88AD5EDA0
:1049E00000BAD74BDFF89CA3D3ED009ADAED00AA0A
:1049F000D44CDFF894B394ED009A2BEEA8BA07EEEE
:104A0000900AB0EE4B0AB8EEE78AFFF7C5FEF0EE6B
:104A100040CAB0EE4B0AFFF763FF19EE900AB0EE02
:104A200040DA07F0B5F902460B460020C64907F008
:104A30004FF868EE2C7A06460F4617EE900A07F0FC
:104A4000A7F932463B4607F0FBF969EEAAAA804671
:104A50001AEE900A894607F09BF902460B4640463B
:104A6000494607F037F807F0CDFC68EE0D7ACAF832
:104A700000000AEE900A17EE900A07F089F9324614
:104A80003B4607F0DDF929EE899A804619EE100AB7
:104A9000894607F07DF902460B464046494607F035
:104AA00019F807F0AFFC2060A84CDFF8E0A294ED05
:104AB00000BA6BEE288A09EE100AB0EE680AFFF71A
:104AC0006BFEB0EE40CAB0EE680AFFF709FFDBEDFF
:104AD000007ADAED008A69EEA77AF0EE40DA17EE96
:104AE000900A07F055F968EE0C7A804617EE900AA6
:104AF000894607F04DF932463B4607F0A1F90246D8
:104B00000B464046494606F0E5FF07F07BFC68EEA1
:104B10002D7A69EEA88ACBF8000009EE900A17EE0C
:104B2000900A07F035F932463B4607F089F9064608
:104B300018EE900A0F4607F02BF902460B46304656
:104B4000394606F0C7FF07F05DFC08EE900A29EE33
:104B5000097A68EEA87A0AEEAA7ACAF8000049EE45
:104B6000A97A18EE100AB4EEE77AF1EE10FA40F3E3
:104B7000BA8029EE0D9A0AEEAC9A07F009F90646BA
:104B800019EE100A0F4607F003F902460B4606F02D
:104B9000A1FF02460B463046394606F099FF07F062
:104BA00031FC08EE100A1BEE900A07F0F1F858A34A
:104BB000D3E9002306F08EFF07F024FC08EE900AEC
:104BC00028601BEE100A07F0E3F853A3D3E9002393
:104BD00006F080FF07F016FCB6EE007AF4EEC78A06
:104BE000F1EE10FA07EE900AC4BFF7EE006A78EE15
:104BF000E68A504BC8BFC5ED008ABDEEC88AF4EE08
:104C0000C77AF1EE10FA83ED008A514B2060C4BFE1
:104C1000B7EE007A77EEC77A1B78C8BFC4ED007A8A
:104C200013B34C4C206807F0B3F83DA3D3E900233D
:104C300007F006F907F0E6FB07F0AAF8F8EECA7AE3
:104C4000064617EE900A0F4607F0A2F836A3D3E9FE
:104C5000002307F0F5F802460B463046394606F0C9
:104C600039FF07F0CFFB20603B4B1B68002B3FF464
:104C7000AEAE3A4B3A4918680A68B8EEC88A02EBF9
:104C8000800282ED008A374A1C68106800EB8400BD
:104C90000024046018680130186033481C680068FC
:104CA0008442FFF694AE4FF00008C3F800802F4B0B
:104CB0002F4F304D304EDFF8D8E0304CDFF8D4C005
:104CC000012018602E4BD3F80090B9F1000F15D1D8
:104CD00018600F601560C6F800E0C4F800C0BDECB5
:104CE0000C8BBDE8F88F68EEAD8A49EE8C8A07F030
:104CF0004FF806460F4618EE900A44E7C3F80080C6
:104D0000C1F800E0C2F800C037602560E7E700BFE7
:104D10001A4D2EC6C03AAA3F0F98EA76B479AF3F33
:104D20002B8716D9CEF7EF3FFCA9F1D24D62503F49
:104D30001C0000203C01002050010020DA0FC94077
:104D400000000020200100200000F03F540100205E
:104D50001D00002038010020580100202C010020F7
:104D600008000020040000200C000020300100207A
:104D7000B00A0020B40C0020140000201000002015
:104D800028010020480100204C01002024010020BF
:104D90009C0500209C0700202049214A0B685C1CD0
:104DA00042F823001F4B0C601B689C4234DB10460A
:104DB0001D4A002415461646A34213DC00208342F8
:104DC00016DC03EBD3735B105A1E56F8233056F8EB
:104DD0002220134403EBD373144A5B1013600023A7
:104DE0000B60F4E550F8047B45F8047B0134E3E7FD
:104DF000013014460546AB4201D10432DFE7D4F856
:104E000004C01768BC45C8BFC2F800C005F1010561
:104E1000C8BF67600434EEE7002060E7340100207B
:104E20009C090020180000209C0200203C0100206A
:104E300010B50A4B5A789878DC78197940EA022044
:104E400041EA0421064A00B209B29080D180FFF7FE
:104E5000B3FD10B1034B01221A7010BD9C0A002053
:104E600090020020440100202DE9F84FB5EEC00A61
:104E7000F1EE10FA2DED068BB0EE408A7BD4B5EE44
:104E8000400AF1EE10FA78D09FED419A3CA7D7E99D
:104E900000670024F7EE008AF0EE499AB2EE04AA09
:104EA00018EE100A06F074FFB4EEC98AF1EE10FA9B
:104EB00002DD0134152C45D10FF2C409D9E900896E
:104EC0000FF2C40BDBE900AB18EE900A06F060FFAE
:104ED000064618EE100A0F4606F05AFF42464B46A9
:104EE00007F020FA08B1132C37DD0623F7EE008A0D
:104EF000F6EE006A78EE287A013B67EEA67A88EE35
:104F0000277AB0EE678A68EE878AF3D10022214BB8
:104F10003046394606F094FF78EE287A044617EEBC
:104F2000900A0D4606F034FF02460B4620462946FD
:104F300006F086FF07F066FABDEC068B00EE100A5D
:104F4000BDE8F88F32463B4606F07AFF07F05AFA82
:104F500068EE8A8A08EE100AA2E752465B4630469F
:104F6000394606F06DFF07F04DFA28EE298A08EE63
:104F7000900A0134A8E70848DEE70020DCE700BF1C
:104F80007B14AE47E17A843F9A9999999999B93FF0
:104F90000000C8420000E03F000080BF044B9A6858
:104FA000F1EE103A136C23F09F031364704700BFB7
:104FB00030EF00E0F8B5144B186820B3134D144CD3
:104FC000286800221A60226800F12001203200F0D7
:104FD00025FC2F680F4D266820243B1993ED007A9D
:104FE000D3ED007A331993ED000AD3ED006A20EE79
:104FF000260A07EE270AFFF737FF0434402CA5ECFA
:10500000010AEAD10120F8BD30010020140000207F
:10501000100000209C030020004870479C030020E3
:10502000014B1868704700BF3C010020034BD3EDD3
:10503000007AFDEEE77A17EE900A704738010020FB
:10504000014B1860704700BF5801002013B50B4B8F
:10505000D3F80041012C0ED10022C3F8002102F048
:10506000F9FE40B9064B074A1B6800930421064B22
:10507000204602F0CDFF02B010BD00BF006000402E
:1050800090020020314E00009C0A0020F8B54FF03D
:10509000A042234B234C244F012606FA00F0C2F80D
:1050A00018051860C2F8080540F205521A819E7270
:1050B0001E4B0D4645211970238823F03403DB0570
:1050C000DB0D43F4D04323803B8823F4875323F044
:1050D000180343F4855309203B80FFF719FC3988F6
:1050E0000A20FFF71DFC21880C20FFF719FC0C207B
:1050F000FFF71EFC238880B2834204BF0C4B1E6066
:10510000FFF722FC0B490C4B012241EA0521C3F8B1
:105110001015C3F80423094B40221A60F8BD00BFE4
:1051200090020020B40E0020B00C0020AC0A002039
:1051300040010020010002000060004000E100E0AA
:10514000044B1A7802F0FF0012B100221A700120FD
:10515000704700BF44010020014B1868704700BF32
:105160004001002008B50A4B4022C3F88020094BBB
:10517000002119700920FFF7CBFB074B362119805E
:105180000C20FFF7CDFB054B01225A6008BD00BF84
:1051900000E100E0AC0A0020B40E002000900040C6
:1051A000F0B5224BD3F8002512B10022C3F8002538
:1051B0001F4D204C204E4FF0FF32C3F86C252A784B
:1051C000C3F860251D4A216811806F7840F2FF31D5
:1051D0001181C6F860756768AD7851815780C6F84F
:1051E0006455A46894809181012400214FF4806566
:1051F000D180D181C3F80045C3F80415C3F8085520
:105200000225C3F80C15C3F81055C3F81415C3F8DC
:1052100020250822C3F8242500011022C3F8280500
:10522000C3F800239C60C3F80042F0BD00C00140F9
:10523000BC0E00202400002004C00140C80E002045
:10524000074BD3F8102152B100220649C3F80025BC
:1052500008684FF0A041C1F80C05C3F81021704751
:1052600000C001406001002030B5334AD2F850310F
:10527000002B39D0314B0020C2F8500119685D680D
:105280009C68294321434FF0A044C4F80C152C49D5
:105290000C7864B12B4C2468C2F840452A4C246831
:1052A000C2F84445294C2468C2F848450870284A89
:1052B0001168C9B11168013911601168A1B91A6882
:1052C0005C689868224302434FF0A040C0F808256C
:1052D000196059609960184B4FF6FF72C3F840256A
:1052E000C3F84425C3F84825134BD3F8482142B1ED
:1052F0000022C3F84821114A91684FF0A042C2F839
:105300000815D3F8442142B10022C3F844210B4BC5
:105310005A684FF0A043C3F80825074BD3F8402143
:1053200042B10022C3F84021044B1A684FF0A04359
:10533000C3F8082530BD00BF00B001406001002067
:1053400070010020C40E0020C00E0020B80E002006
:105350006C0100207FB5104D0392CDE901010F498A
:1053600001A8002301264FF0A04450F8042B002A86
:105370000DDB5A55D2B206FA02F241F8232051F859
:105380002320C4F8182551F82320C4F80825013338
:10539000032BEAD104B070BDBC0E002060010020D8
:1053A0004043801140F2FF339842A8BF184670472F
:1053B000054B1A684FF0A04310B1C3F80825704799
:1053C000C3F80C25704700BF5C01002010B50F4BDF
:1053D0004FF0A04478B91868C4F808054FF0A04011
:1053E00069B95968C0F808154FF0A0419B6852B9D7
:1053F000C1F8083510BD1868C4F80C05EEE7596807
:10540000C0F80C15F0E7C1F80C35F3E76001002097
:1054100038B51D46FFF7C4FF074C20600846FFF76C
:10542000BFFF60601046FFF7BBFFA0602846BDE8E5
:105430003840FFF7B5BE00BF240000200346044AF1
:1054400004490548127809780078FFF7E1BF00BFEA
:105450001E0000201F000020200000202E4A93780C
:105460005178107901EB03212C4B09B207EE901A09
:105470005985D178D3ED026A01EB002109B2907908
:105480009985B8EEE77A07EE901A517927EE267AD9
:1054900001EB002109B283ED067AB8EEE77A07EE58
:1054A000901A107AD985F8EEE77AD17967EEA67A64
:1054B00001EB002109B2907AC3ED087A998407EED6
:1054C000901A517A27EE267A01EB002109B2D3ED2A
:1054D000016A83ED077AD984B8EEE77A07EE901A6D
:1054E000117BD27A27EE267A02EB012212B283EDEB
:1054F000037AB8EEE77A07EE902AF8EEE77A1A8593
:105500005A6B27EE267A67EEA67A013283ED047A8B
:10551000C3ED057A5A637047DC0E0020000F0020AF
:10552000014B1A6802F0C0BC000F0020024B40F093
:105530008000196802F0E0BC000F002007B51B20B6
:10554000FFF7F4FF0A4B187000F0C000C0280CD120
:10555000084B094A1B6800938C20084B0C2102F071
:1055600057FD012003B05DF804FB0020FAE700BFFF
:10557000FC0E0020000F00205D540000DC0E002017
:10558000704708B510217E20FFF7CAFF642002F0A3
:10559000A9FE7E201421FFF7C3FF6420BDE8084068
:1055A00002F0A0BE08B5B6217E20FFF7B9FFC820E3
:1055B00002F098FE27214020FFF7B2FF012002F001
:1055C00091FE05214120FFF7ABFF012002F08AFE8A
:1055D00027214220FFF7A4FF012002F083FE0221D1
:1055E0004320FFF79DFF012002F07CFE11217E2069
:1055F000FFF796FF642002F075FE7E201521FFF76D
:105600008FFFC820BDE8084002F06CBE012310B532
:1056100003FA00F00A4C4FF0A043C3F818052060CD
:10562000C3F8080500236420636302F05BFE054BAA
:105630006360054BA360BDE81040FFF7B3BF00BF38
:10564000000F0020CDCC9C3A5C7C8B3908B5044B14
:1056500001221A6002F068FD024B186008BD00BF0D
:10566000740100207801002070B5644C02F05CFDEC
:105670002368012B05464AD1B6217E20FFF750FF53
:105680005F4B1D60022323602368062B4DD15C4EC7
:105690003368EB1A322B40F2848000214520FFF75B
:1056A0003FFF00214720FFF73BFFA7214020FFF7E6
:1056B00037FF0723356023602368092B44D1504E00
:1056C0003368EB1A012B7BD902214320FFF728FF17
:1056D0000A233560236023680C2B44D1484E33687D
:1056E000EB1A012B7DD900215120FFF719FF002172
:1056F0005420FFF715FF11217E20FFF711FF3560C1
:105700000D2323602068B0FA80F0400970BD022BA1
:1057100038D13B4E3368C31A322BB5D911217E20C4
:10572000FFF7FEFE0323356023602368072B38D183
:10573000334E3368EB1A012BBED905214120FFF708
:10574000EFFE08233560236023680A2B38D12C4EE6
:105750003368EB1A012BBED915217A20FFF7E0FE42
:105760000B233560236023680D2B3AD1244E336818
:10577000EB1A322BC6D915217E20FFF7D1FE3560FA
:105780000E23BEE7032B7FF47FAF1D4E3368C31A91
:10579000322BCAD915217E20FFF7C2FE06233560C1
:1057A00023602368082B87D1154E3368EB1A012B31
:1057B000CAD927214220FFF7B3FE092335602360B1
:1057C00021680B2987D10E4E3268AA1A012ACAD93C
:1057D0000C4B1B687BB17B20FFF7A2FE0C233560CE
:1057E000236023680E2B8DD1054B1B68ED1A322DDB
:1057F00088D9002385E70321EDE700BF740100206D
:10580000780100207C01002008B50020FFF78EFE03
:10581000A0F1D1035842584108BD0000D0ED047AF0
:10582000D0ED006A90ED027A90ED056A90ED035A92
:10583000DFED453A76EEA75A76EEE76AD0ED067AC6
:1058400037EE272A77EE677A90ED017A77EE060A2F
:1058500037EE467A90ED076A2DED028B35EE060A9B
:105860009FED3A8A35EE465A35EE824A65EE082AB1
:1058700067EE881A32EE871A34EE206A21EE231A78
:1058800071EEA64A36EE006A34EE813A81ED006A86
:1058900025EE236A82ED008A33EE463A70EEC08A26
:1058A00081ED013A36EE273A75EEC25A33EE013AEF
:1058B00028EE882A82ED013A76EEE16A35EE823AE8
:1058C00037EE627ADFED222A81ED023AB0EE663AD7
:1058D00007EE223A34EE604A27EE237A74EEC14A8C
:1058E00076EE673A74EE864A73EE873A33EE063AFE
:1058F00034EE404AC2ED028A81ED033AC2ED033A2A
:1059000081ED044A82ED048AC1ED054A77EEC64A6C
:1059100055EE227A76EE876A75EEC25A74EEC14A67
:1059200076EEC66A37EEC77AC2ED054AC1ED065A71
:10593000F1EE685AC2ED065ABDEC028BC1ED076A62
:1059400082ED077A704700BFF304353F0000000086
:10595000F30435BF304B4FF0A04130B516220C2474
:105960001A720020C1F858470A22D1F810556D026A
:1059700048BF0130013AF8D1082862F383044FF0A0
:10598000A042CCBF042005201870C2F858474FF041
:1059900080520624526E5A6040F6070104281F4ABE
:1059A0005C72598130D11E49C3E9031241F212429F
:1059B0009A820B229A7513229D7D1A7605F5E07561
:1059C0004FF0A042012142F82510042808BFC2F878
:1059D0007817DD7D05F5E07504280CBF0320002055
:1059E00042F82510C2F83017C2F838171B7B6FF346
:1059F000000103F5E07360F3830142F823106FF3B5
:105A00008301C2F8341730BD0649C3E90312064AC0
:105A10005A61FF22D0E700BF780F00200E0F11104F
:105A20001A020D0C1B020D0C0B0A1218114A1378E6
:105A3000042B0BD1927D012393404FF0A042C2F87A
:105A400008354FF08043C2F808357047052B0FD159
:105A5000D37D927D012101FA02F201FA03F313438F
:105A60004FF0A042C2F808354FF08043C3F87815D4
:105A7000704700BF780F002010B51B4C2378052B12
:105A80000BD1E37DA17D012202FA03F38A40134387
:105A90004FF0A042C2F80C3510BD042BFCD1FFF72B
:105AA00061FBFFF76EFD002211461046FFF78EFCEA
:105AB0000020FFF77DFC0A2002F014FC02F014FB2A
:105AC0000A4B0022C3F80025A27D01234FF0A0411C
:105AD00003FA02F2C1F80C254FF080425360D367FD
:105AE000C2F80035D8E700BF780F00200030004032
:105AF00038B5064CA37D01254FF0A04205FA03F30B
:105B0000C2F80835FEF720FF657638BD780F002013
:105B10000B4A117B1278042A4FF0A0424FF0010388
:105B200003FA01F3D2F8102504D11A420CBF012068
:105B3000002070471A4214BF01200020704700BFA8
:105B4000780F00200000000007B5394B4FF44031BA
:105B500000220192C3F818153649497B881E032894
:105B600056D84A1EC3F8102500210222C3F8141586
:105B700001A8C3F8F0250122C3F83026C3F82C068B
:105B8000C3F8F815C3F800251A60294B1A46D3F854
:105B900000110029FBD00021C3F800110121596038
:105BA000D2F80431002BFBD00023C2F804310123CA
:105BB00093601F4BD3F81421002AFBD00022C3F8B6
:105BC0001421DDED017AF8EE677A17EE900A06F0FF
:105BD000DFF813A3D3E9002306F032F912A3D3E9C7
:105BE000002306F057FA06F00DFC07EE100AF0EE5F
:105BF000087A67EE277A17EE900A06F0C9F80022B5
:105C00000D4B05F067FF06F0B5FB03B05DF804FB34
:105C1000A1F11C00042898BFA1F11702A2E700BF60
:105C2000000000000020AC400000000000FEAF407B
:105C300000700040780F00200000E03F044B054A50
:105C40000549C3E90012054A9A6000221A73704799
:105C5000940F00200100DC500AC90EAAFA000200CD
:105C6000B5EEC00AF1EE10FA4CBFF1EE406AF0EE6C
:105C7000406AB0EE007AF4EEC76AF1EE10FAB0EEC8
:105C8000406A22D4F2EE087AF4EEE76AF1EE10FAF6
:105C9000F1EE045A58BFF0EE475A9FED0F0A58BF75
:105CA000B0EE677ADFED0D7A58BFF0EE407A36EE4F
:105CB000C77AB5EEC06A47EE257AF1EE10FAB0EE7B
:105CC000670A48BFB1EE670A70479FED057AF3EEA9
:105CD000095AF0EE477AEAE70000C842000048425D
:105CE0000000000080EAE072A2EBE07247F6FF736A
:105CF0009A42A8BF1A4610B55210002101244B0049
:105D000004FA03F3934229DD07EE902A07EE103AD6
:105D1000F8EEE77AB8EEC77AC7EE876AB5EE007A92
:105D200036EEC77AF6EE007AB5EEC07AF1EE10FAEA
:105D300048BF9FED0B7AF3EE046A47EE267AFDEE3C
:105D4000E77A17EE903A0F2BA8BF0F230028B8BFB1
:105D500041F0080143EA0110C0B210BD0131CEE7A5
:105D600000000000000000002DE9F74FCC4ACD4CA8
:105D700013780133DBB21370237020236370CA4B96
:105D80005B6863711A0EA2701A0CE2701A0AC74B94
:105D90002271DB7A012B31D1DA23A3710923E3715C
:105DA000C34B1B880A22A3F5FA6393FBF2F3237219
:105DB000C04B1A6962729A88E272110ADA88A1727B
:105DC000110A2173627304F10E0103F10802082322
:105DD00012F8010B01F8010B013BF9D11722B1496F
:105DE00062701A4611F8010B01330244162BD2B22D
:105DF000F8D1A275172003B0BDE8F08FAE4E7369DD
:105E0000A371AE4B1A780132D2B2072A88BF0022A2
:105E10001A701F78E771EFB9A54B1B880A22A3F50A
:105E2000FA6393FBF2F32372062363727368A3721F
:105E30000B256A1CAB1C062FD2B2DBB240F0A3804C
:105E40009F49098E08126055A15403350022EDB216
:105E5000E254E7E0012F1DD19A4BD3ED027AFDEE1B
:105E6000E77A40F6FF7117EE902AD3ED047AFDEE43
:105E7000E77A8A4217EE903AA8BF0A468B42A8BF3B
:105E80000B46C2F30320C3F3032141EA0011217240
:105E90006272CCE7022F39D1D6F8283263721A1217
:105EA000874B2272D3ED127ABDEEE77A17EE103AE5
:105EB00013F1140F1EDB4D2B24DC1D2B1DDC03F115
:105EC0001400C0B21E3B112B12D817EE900A05F039
:105ED0005FFF00227C4B05F0FBFD00227B4B05F0B1
:105EE000AFFF00227A4B05F0F5FD06F06BFAC0B269
:105EF000A0729DE76FF01303E1E72F2B04DDA3F100
:105F00005300DEE74D23FAE70020DBE7032F07D13C
:105F1000012001F003FBF368237203126372E7E7C9
:105F2000042F69D1664991ED030AFFF799FE9FEDB1
:105F3000695A30EE050A0B25FDEEC07A91ED040A90
:105F400017EE902AFF2AA8BFFF22FFF789FE30EE46
:105F5000050AFDEEC07A91ED050A17EE903AFF2B87
:105F6000A8BFFF23FFF77CFE30EE050A23EAE373A8
:105F7000BDEEC00A637210EE103A22EAE27283F3B9
:105F800008032272A372AB1C05F1010ADBB2072FD2
:105F90005FFA8AFA019345D1DFF83C91494BD9F871
:105FA000007003EB070898F8580005F0DFFE3AA3ED
:105FB000D3E9002305F044FF06F0DCF9834698F8A6
:105FC000590005F0D3FE34A3D3E9002305F038FFD0
:105FD00006F0D0F96755019B04F80AB002370E2F7E
:105FE00005F10305E054C8BF0023EDB2D4BFC9F8E2
:105FF0000070C9F8003015E0052F4FF008057FF458
:1060000018AF2F4DB5F92A00FFF76CFE2072B5F9D5
:106010002C00FFF767FE6072B5F92E00FFF762FEF5
:106020000B25A072D6E9483705F112010A3B48BF9B
:10603000DB19C9B22A4603F14A00013356F820C0E1
:106040004FEA2C2E501C04F802E00232C0B2D2B249
:10605000BB42A8BF00238A4204F800C0EBD105F17F
:106060001400C0B200220F4E60701346914208DC4B
:10607000133500226354EDB21346954207DC635595
:10608000B9E616F8017B3B44DBB20132EEE7A15CD6
:106090000B44DBB20232F0E70000000000E06F408A
:1060A000880100201C100020780F0020940F002091
:1060B000680F002048270020C0240020890100200C
:1060C000000F0020CC10002000003E4000002440C3
:1060D0000000494000000043800100200000000053
:1060E0002DE9F843B04AB14C13780133DBB2137099
:1060F000237040236370AE4B5B6863711A0EA2700D
:106100001A0CE2701A0AAB4B2271DB7A012B24D1F4
:10611000DA23A3710923E371A74B1B880A22A3F595
:10612000FA6393FBF2F32372A44B1A6962729A88A2
:10613000E272110ADA88A172110A217362730833BC
:1061400004F10E01082213F8010B01F8010B013ACA
:10615000F9D116206070BDE8F883994E4C23A371E5
:106160003369E371974B1A780132D2B2072A88BF9C
:1061700000221A701B78237263B98F4B1B880A2286
:10618000A3F5FA6393FBF2F363720623A3727368B9
:10619000E3724EE0012B1DD18B4BD3ED027AFDEE65
:1061A000E77A40F6FF7117EE902AD3ED047AFDEE00
:1061B000E77A8A4217EE903AA8BF0A468B42A8BFF8
:1061C0000B46C2F30320C3F3032141EA00116172BD
:1061D000A272DDE7022B42D1D6F82832A3721A123E
:1061E0007A4B6272D3ED127ABDEEE77A17EE103A6F
:1061F00013F1140F27DB4D2B2DDC1D2B26DC03F1B7
:106200001400C0B21E3B112B12D817EE900A05F0F5
:10621000BFFD00226E4B05F05BFC00226D4B05F0CC
:106220000FFE00226C4B05F055FC06F0CBF8C0B217
:10623000E0720C25D6E906731B3B00D53B4405F103
:106240003402D2B2A8E06FF01303D8E72F2B04DD9D
:10625000A3F15300D5E74D23FAE70020D2E7032B43
:1062600007D1012001F05AF9F36863720312A37297
:10627000DEE7042B2FD1554991ED030AFFF7F0FC1F
:106280009FED565A30EE050AFDEEC07A91ED040AF4
:1062900017EE902AFF2AA8BFFF22FFF7E1FC30EE9D
:1062A000050AFDEEC07A91ED050A17EE903AFF2B34
:1062B000A8BFFF23FFF7D4FC30EE050A23EAE373FF
:1062C000BDEEC00AA37210EE103A22EAE2726272C8
:1062D00083F308035CE7052B4FF0090511D13B4F11
:1062E000B7F92A00FFF7FEFC6072B7F92C00FFF740
:1062F000F9FCA072B7F92E00FFF7F4FC0C25E07250
:1063000098E7062B08D1314B1B8EA3721A1200237B
:1063100062720C25E3728DE7072B8BD1DFF8C0800A
:10632000294DD8F800703D4495F8580005F01EFD41
:106330001BA3D3E9002305F083FD06F01BF881467B
:1063400095F8590005F012FD15A3D3E9002305F0D7
:1063500077FD06F00FF8677202370E2FC8BF0023D3
:1063600084F80A904FF00C05E072D4BFC8F80070B2
:10637000C8F800305EE703F10801013356F8210048
:10638000691CC9B24FEA202C04F805C002356054DC
:10639000EDB29F42D8BF0023AA422846EBD1D9E6EE
:1063A0000000000000E06F40880100201C10002069
:1063B000780F0020940F0020680F0020482700204D
:1063C000C024002089010020CC100020000F0020F4
:1063D00000003E400000244000004940000000430F
:1063E00080010020000000002DE9F047AA4DAB4CD1
:1063F0006B692370AA4B1A780132D2B2072A88BF80
:1064000000221A701B786370002B52D1A54B1B8899
:106410000A22A3F5FA6393FBF2F3A3700523E3705A
:106420006B682371D5E9483C113B48BF634403F1D5
:106430004A02184655F82220A271111261711646BF
:106440004FF00F0E002101306045A8BF002000F181
:106450004A0755F82770B7EB060848BFA6EB0708B0
:106460004145B8BF4146BEF1010E3E46EBD17F200B
:10647000B1FBF0F14E1C642E40F30781B1F16300D3
:1064800048BFA1F1600081106431E171082001333F
:106490006345A8BF002303F14A0155F821108A1A69
:1064A00092FBF6F22254013017280A46EFD1BDE8DC
:1064B000F087012B1DD17C4BD3ED027AFDEEE77AFC
:1064C00040F6FF7117EE902AD3ED047AFDEEE77ADD
:1064D0008A4217EE903AA8BF0A468B42A8BF0B46E5
:1064E000C2F30320C3F3032141EA0011A170E2705B
:1064F00097E7022B39D1D5F82832E3701A126B4B8B
:10650000A270D3ED127ABDEEE77A17EE103A13F1CE
:10651000140F1EDB4D2B24DC1D2B1DDC03F114009E
:10652000C0B21E3B112B12D817EE900A05F030FCBA
:1065300000225F4B05F0CCFA00225E4B05F080FC98
:1065400000225D4B05F0C6FA05F03CFFC0B2207199
:1065500068E76FF01303E1E72F2B04DDA3F153008D
:10656000DEE74D23FAE70020DBE7032B15D10120FE
:1065700000F0D4FF0646022000F0D0FF40F6FF7383
:106580009E423246A8BF1A4683426178A8BF03469E
:10659000E86841EA00116170A2E7042B2FD143495A
:1065A00091ED030AFFF75CFB9FED445A30EE050ABC
:1065B000FDEEC07A91ED040A17EE902AFF2AA8BFDB
:1065C000FF22FFF74DFB30EE050AFDEEC07A91ED9C
:1065D000050A17EE903AFF2BA8BFFF23FFF740FBF9
:1065E00030EE050A23EAE373BDEEC00AE37010EE55
:1065F000103A22EAE272A27083F3080311E7062B35
:1066000006D12A4B1B8EE3701A12A270002308E7F2
:10661000072B7FF407AFDFF8A880234FD8F800607E
:10662000374497F8580005F0A1FB19A3D3E90023DC
:1066300005F006FC05F09EFE824697F8590005F02D
:1066400095FB13A3D3E9002305F0FAFB05F092FEB6
:10665000814697F85A0005F089FB0DA3D3E9002382
:1066600005F0EEFB05F086FE637884F802A043EAAD
:10667000061303360C2E6370CABF0023C8F80060EF
:10668000C8F8003084F8039061E73146FDE600BFAA
:106690000000000000E06F40C02400201C1000201B
:1066A00089010020680F0020CC100020000F00207E
:1066B00000003E400000244000004940000000432C
:1066C00080010020F8B53C4BDFED3C7AB3F9245053
:1066D000B3F92670B3F92A60B3F92C10B3F92E2060
:1066E000044605F50045C5F30B2CB3F9280084F8E2
:1066F00000C007F50047DFF8CCC03F1105EA0C05E4
:10670000C7F3072E4EEA050500F5004006F50046E2
:1067100065703611C0F30B25E57000EA0C00C6F376
:106720000725284301F5004102F5004220711211AE
:10673000C1F30B20A07101EA0C01C2F30720014351
:106740006671E1712272A770D3ED126A1C4DB2EE30
:10675000047A56EE877A0120FDEEE77A17EE902A4A
:1067600082F3080262721B8EE3721A12A272EB6845
:10677000237300F0D3FE86B2022000F0CFFE40F675
:10678000FF7280B29642334628BF1346904228BF1C
:1067900010461A096273020A42EA0313A3736B6874
:1067A000E0732374D5F828321B126374D5F82832AD
:1067B000A3741320F8BD00BF000F00200000484361
:1067C000C0240020F0FF0F0010B5184A431E00F14E
:1067D0000E0112F8014B03F8014F8B42F9D1144B13
:1067E000D3ED027AFDEEE77A40F6FF7117EE902ABC
:1067F000D3ED047AFDEEE77A8A4217EE903AA8BF0D
:106800000A468B42A8BF0B461111C173437419127B
:10681000084B1B8841EA02120274A3F5FA630A22AC
:1068200093FBF2F38374132010BD00BF24110020EA
:10683000CC100020680F00202DE9F04103F0B6FADB
:106840003E4A3F48136801331360012202703D4AFB
:106850001168B3FBF1F201FB123205463AB902238B
:1068600000F8013BFFF72EFF1420BDE8F081364A07
:106870001168B3FBF1F201FB12332BB9032300F8CB
:10688000013BFFF7A1FFEFE7304CD4F82031D4F8FB
:1068900024616269AA70A3F10D000E3B48BF9B19E9
:1068A0004A33110A6970002854F82310B8BF8019C0
:1068B00000228C4607464FF00D0E134607F14A089A
:1068C000013754F82880A8EB0C0C6345B8BF634629
:1068D0006245A8BF6246B742A8BF0027BEF1010EBD
:1068E000C446EBD17F27B3FBF7F76FF07E0392FB33
:1068F000F3F39F42CCBF7B1C0133642BC3BFA3F1D6
:106900006402921064321A46EA700A122A7169719E
:10691000062200F14A07013054F82770791A91FBDA
:10692000F3F18039A9540132B042A8BF0020132AE4
:106930003946EED1A368EB7496E700BF84010020CE
:10694000A40F00203400002030000020C0240020CC
:10695000004870471C100020004870471C100020A1
:10696000004870471C10002000487047A40F00200A
:10697000004870470410002070B501238B4200DBF3
:1069800070BD50F8045F5C1E0246661C03D052F8CE
:10699000046CAE4202DC15600133EFE742F8046993
:1069A000013CF2E7F0B52DED048B424B424A1B68E7
:1069B0001568424EA5B00BAA013B0021144601AF59
:1069C000002BB8BF5B19042936F81300D8BF47F86D
:1069D00021000131192942F8040B03F1FF33EFD1F3
:1069E0002046FFF7C9FF052101A8FFF7C5FFDFED2E
:1069F000346A0623B0EE669A54F8232007EE902AF4
:106A00000133B8EEE76A132B76EE866AF4D1F2EE24
:106A10000A7A86EEA76A2B4CF7EE008AB4EE686A13
:106A20009FED298AF1EE10FA4CBF18EE100A16EE0F
:106A3000100A05F0ADF902460B460020234905F087
:106A400029FB0022224B05F0FBF905F093FCDDED5C
:106A5000027A6060B8EEE77ADDED037A37EE097A04
:106A6000F8EEE77AF0EE086A37EE877ADDED047A21
:106A7000F8EEE77A77EE877A87EEA67AB4EE687A50
:106A8000F1EE10FA4CBF18EE100A17EE100A05F0DE
:106A90007FF902460B4600200C4905F0FBFA002264
:106AA0000B4B05F0CDF905F065FCA06025B0BDEC01
:106AB000048BF0BD98010020380000203811002020
:106AC00000000000C02400200050C34700408F4059
:106AD00000004E400B4B0C4800210F2270B518608F
:106AE0005960996019615A6103F1180503F158045E
:106AF0000026013A45F8041B04F8016BF9D19866A9
:106B000070BD00BFCC1000200AD7233C000000005D
:106B10002DE9F04F2DED048B8F4B904A1C68013C02
:106B200042BF8F4B1B68E418934632F81430013C87
:106B300042BF8B4A1268A418A3F1C802B2F5E16FF4
:106B400085B000F2CC803BF81420A2F1C801B1F569
:106B5000E16F00F2C48007EE902A824DB8EE679A8A
:106B600007EE903A6868D5ED008AB8EE678A05F0BE
:106B70000FF9064618EE900A0F4605F009F902468D
:106B80000B460020784904F0A3FF0B460246394625
:106B9000304605F055F905F035FC39EE488A00EE2F
:106BA000100A68EE888A08EE880A85ED010AFEF769
:106BB0005BF96E4B85ED020AD3F80480B8F1000F43
:106BC00040F38D80B5EEC08AF1EE10FA4CBFF1EEC5
:106BD000487AF0EE487A17EE900A05F0D9F807EEF9
:106BE000908AB8EEE77ADFED627ADFF89481C7EE3B
:106BF000877A06460F46C2464FF0000917EE900A04
:106C000005F0C6F852A3D3E9002305F019F90246AE
:106C10000B463046394605F03DFA05F0ABFB6F698F
:106C2000D5ED1A7A87420646CDED017AD8BF07F135
:106C3000FF364F4558DC063605EB8606D6ED007A62
:106C4000B7EE007A77EE877A4246C6ED007ADFED3E
:106C5000497A00239F4266DC9FED477A4749C7EE99
:106C6000276A0022974264DC013C42BF3C4B1B6810
:106C7000E41840F206713BF81430A3F1C90292B255
:106C80008A422CD807EE903AF8EE677AE868D5ED9C
:106C9000008A77EEC97A38EE678A05F079F80646F9
:106CA00018EE900A0F4605F073F802460B460020D6
:106CB0002D4904F00DFF02460B463046394605F0DB
:106CC000BFF805F09FFB68EE888A00EE100A08EE18
:106CD000880A85ED030AFEF7C7F885ED040A05B0BA
:106CE000BDEC048BBDE8F08FDAED007A0198CDEDB4
:106CF000007A05F04DF802460B4600201A4904F0D0
:106D0000E7FECDE90201009805F042F802460B4685
:106D1000DDE9020105F094F805F074FB09F10109C1
:106D20004AF8040B85E7B2EC017A013377EE877AF3
:106D300090E7B8EC017A27EE267A0132FCEEC77AAA
:106D400017EE903A01F8013B8CE700BFAFF30080EB
:106D50007B14AE47E17A843F98010020381100206F
:106D600038000020CC1000200000F03FC02400209C
:106D700000606A47BD3786350000C84224110020F4
:106D8000E410002008B50E4A0E49136821F81300DC
:106D90000D49096801338B421360A4BF00231360BF
:106DA0000A4BDA680132DA60D3F830220132C3F8D4
:106DB0003022FFF7F7FDBDE80840FFF7A9BE00BF8E
:106DC000980100203811002038000020C024002045
:106DD000094B002200211A605A609A60DA601A6139
:106DE0005A619A63DA630822C3E90A11C3E90C11F4
:106DF000C3E91021704700BFF82600200000000002
:106E000008B501F091F91C4AD36C926CC01A07EED8
:106E1000900A9B1AF8EEE76A07EE903AF8EEE77AE6
:106E2000B7EE006A77EE867A86EEA77A77EE467A34
:106E3000B2EE047A27EE877A67EE277A17EE900A89
:106E400004F0A6FF0AA3D3E9002304F043FE05F0F3
:106E5000D9FADFED0A7A00EE100AB4EE670AF1EE15
:106E600010FAC8BFB0EE670A08BD00BFAFF30080DC
:106E7000333333333333E33FF82600206666A63FCF
:106E80002DE9F8432DED028BCB4C2068B0EE408A03
:106E900004F07EFFBAA3D3E9002304F0D1FF05F08C
:106EA000B1FA04F075FF064618EE100A0F4604F01A
:106EB0006FFFB5A3D3E9002304F0C2FF02460B46DF
:106EC0003046394604F006FE05F09CFA07EE900ABB
:106ED00078EE677A206017EE900A04F059FFB74CFD
:106EE000064620680F4604F053FFA9A3D3E9002308
:106EF00004F0A6FF05F086FA04F04AFFA6A3D3E942
:106F00000023804689463046394604F099FF024600
:106F10000B464046494604F0DDFD05F073FA08EEE5
:106F2000900A2060606804F033FF9DA3D3E900233A
:106F300004F086FF05F066FA04F02AFF9AA3D3E96D
:106F40000023804689463046394604F079FF0246E0
:106F50000B464046494604F0BDFD05F053FA07EEE6
:106F6000900A6060A06878EEE78A04F011FF8CA3B5
:106F7000D3E9002304F064FF05F044FAA0608046E2
:106F8000E06804F005FF86A3D3E9002304F058FF6E
:106F900005F038FAE060054618EE900A04F0F8FEB5
:106FA00081A3D3E9002304F04BFFF5EEC08AF1EE94
:106FB00010FA06460F4640F3C080404604F0E8FE53
:106FC00032463B4604F086FD05F01CFAA0602069BD
:106FD00004F0DEFE76A3D3E9002304F031FF05F0D0
:106FE00011FA2061606904F0D3FE71A3D3E9002394
:106FF00004F026FF05F006FA002560616563FFF7DF
:10700000FFFEF0EE408A01F08FF803466C48DFED9A
:107010006D7A0268D4ED046A9A1A632A6A4A116882
:10702000A3EB010194BFB0EE677AB0EE687A6329F2
:1070300098BFF0EE678A27EE267AD4ED027AF4EE56
:10704000C77AF1EE10FA1FDDE16A03602729A56215
:10705000C4ED047AC4ED087A84ED068A14DC94ED5C
:10706000097AF0EE086A87EE266AF4EEC67AF1EE47
:1070700010FA09DD27EE267AF4EEC77AF1EE10FA5F
:1070800044BF0121C4E90C5194ED050AD4ED037A03
:1070900068EE808AF4EEE87AF1EE10FA58DDF0EE50
:1070A000086A87EEA66A13600022E26294ED087A0D
:1070B000C4ED057AB4EEC67AF1EE10FAC4ED097AA1
:1070C00084ED078A44DD67EEA67AB4EEE77AF1EE46
:1070D00010FA3DD50123C4E90C23236B606CD4ED79
:1070E0000E7AE16AA26A01332363236C013038EE21
:1070F000278A013101329842E162A262606484ED24
:107100000E8A16DB07EE903AB8EEE77A9942C8EE9F
:10711000077AD8BFE1694FF0000060644FF00000CB
:10712000A063C4ED0F7AD8BFE1639A42DCBFA369C4
:10713000E363BDEC028BBDE8F883284604F028FE2B
:1071400032463B4604F0C4FC05F05CF9E0603EE7E3
:10715000226B1E2AC1D1E26C981A9628BDD9B0F5CF
:10716000FA6FC4E9122301DAFFF70CFE174B93F80C
:107170002C32002BB1D02020FEF760F9ADE700BF24
:10718000AE47E17A14AEEF3F7B14AE47E17A843F1D
:107190009A9999999999E93F9A9999999999C93F91
:1071A000CDCCCCCCCCCCEC3F9A9999999999B93F5C
:1071B000EF38454772F9EF3F94010020F826002090
:1071C00090010020AE47813F8C010020C0240020A8
:1071D0002DE9F8432DED048BFDF7ECFE002800F0BF
:1071E000B780FDF719FF9FED9E8ADFED9E8A054669
:1071F0000246B0EE487A0023F2EC017AF4EE687AA7
:10720000F1EE10FAC8BFF0EE678A002B00F00C8197
:1072100037EE277A0133042BEED117EE100A04F073
:10722000B7FD83A3D3E9002306460F4604F008FE0A
:1072300005F0E8F809EE100A04F0AAFD02460B4634
:1072400004F048FC79EE087A804617EE900A8946E9
:1072500004F09EFD78A3D3E9002304F03BFC024632
:107260000B464046494604F015FF05F0CBF804F004
:107270008FFD73A3D3E9002304F0E2FD32463B46C1
:1072800004F0DEFD05F0BEF804F082FD6EA3D3E944
:10729000002304F0D5FD744C064620680F4604F028
:1072A00077FD6BA3D3E9002304F0CAFD05F0AAF82B
:1072B00004F06EFD0B4602463946304604F00AFCE7
:1072C00005F0A0F8237D206007EE900A5BB1F1EE97
:1072D000046AF4EEE67AF1EE10FA3DD5002211468A
:1072E0001046FEF773F8D4ED007A9FED607AF4EE65
:1072F000C77AF1EE10FA00F3938017EE900A04F0CB
:1073000047FD00225A4B04F09BFD05F05BF8A0807E
:10731000FCEEE87A544A17EE903ADFED567AE380B5
:1073200087EEA87A05F110010232F5EC017A67EEDA
:10733000277AA942FDEEE77A17EE903A1BB24FEAA0
:1073400023209071D371EFD1236901332361012090
:10735000BDEC048BBDE8F883B2EE0E7AF4EEC77A8A
:10736000F1EE10FA15D577EEE67AB2EE047AC7EEB2
:10737000877A17EE900A04F00BFD37A3D3E90023B8
:1073800004F05EFD04F0F6FF0A230246002100200F
:1073900018E0F3EE0E6AF4EEE67AF1EE10FA14D588
:1073A00077EEC77AC7EE877A17EE900A04F0F0FC02
:1073B00029A3D3E9002304F043FD04F0DBFF0A23F3
:1073C000FF220021FEF724F88DE79FED2B6AF4EEF3
:1073D000C67AF1EE10FA1FD577EEE67A9FED278A8E
:1073E000C7EE876A16EE900A26EE888A04F0D0FC73
:1073F00002460B460020224904F06AFBBDEEC88A13
:1074000015A3D3E9002304F01BFD04F0B3FF0A2306
:10741000FF2218EE101AD5E7FF220A231146B6E71D
:107420004FF6E853A38073E738EE278AF2E600BFF1
:10743000BEA4315A4755D53FFCA9F1D24D62503F09
:10744000B81E85EB51B89E3F9A9999999999C93F71
:107450009A9999999999E93F0000000000E06F40DE
:10746000000000006F12833A482700200080224469
:107470000000594000F0FF460000344200007F4306
:107480000000F03F38B5224BDB7A012B03D1BDE879
:107490003840FFF79DBE1F4CFDF7C2FDE3695A1C43
:1074A0000833E26144F82300A3699A42A4BF002391
:1074B000E361236901332361D4F834320546013393
:1074C000C4F83432FDF7B2FD07EE905AB8EEE70A81
:1074D000C4F82802FFF7D4FC0F4B596CA9B9D3EDBF
:1074E0000F7AD4F82021FDEEE77A531C17EE900AAC
:1074F0004A3244F82200D4F824219342A8BF0B4614
:10750000C4F82031636901336361012038BD00BFD5
:10751000940F0020C0240020F8260020064B1B6892
:10752000181A064B1B68002803DB054B33F81000C4
:1075300070471844F7E700BF98010020380000208A
:107540003811002008B5FFF7C5FAFFF741FC104BD2
:107550001049186800221346904215DC0E4A40215B
:10756000C2E90613C2E9483101211370C2E90133AF
:10757000C2E90333536182F82C12084A13619380E5
:1075800000231360117508BD21F8023B0132E3E7C7
:107590003800002038110020C02400204827002097
:1075A0002DE9F84F824600F0BFFD614A13680A33A7
:1075B000834200F29280DAED047ADAED036A9AED02
:1075C000057A5C4C5C4B106067EEA77A46EEA67AB3
:1075D0001D6847EE077A451B9FED587A77EEC77A0C
:1075E00094ED007AB4EEE77AF1EE10FA68D5B2EED7
:1075F000047AF4EEC77AF1EE10FA61DD1860A5F1B5
:10760000C90240F206739A42C4ED007A58D84C4A37
:10761000DFF830B113681060C31A07EE903AF8EE45
:10762000677A17EE900A04F0B3FB0646DBF8000019
:107630000F4604F0ADFB30A3D3E9002304F000FCB7
:1076400004F0E0FE04F0A4FB2DA3D3E90023804660
:1076500089463046394604F0F3FB02460B46404665
:10766000494604F037FA04F0CDFECBF8000004F0F0
:107670008FFB25A3D3E900238046894604F0E0FB75
:1076800002460B463046394604F06AFEDFF8B8B0D1
:1076900090B11FA3D3E900234046494604F0D0FB34
:1076A00002460B463046394604F03CFE20B1DBF87A
:1076B00000300133CBF80030DBF80030AAF830306E
:1076C000206804F065FBC72D09DC13A3D3E9002370
:1076D00004F0B6FB04F096FE2060BDE8F88FB5F527
:1076E000FA7F03DA0EA3D3E90023F1E70EA3D3E96F
:1076F0000023EDE7AFF300809A9999999999E93FB2
:107700009A9999999999C93F666666666666E63F51
:10771000CDCCCCCCCCCCF43F5C8FC2F5285CEF3F19
:10772000AE47E17A14AEEF3FD7A3703D0AD7EF3FE3
:10773000A0010020AC0100209C0100207B14C0426D
:10774000A4010020A80100203C0000202B4B0428AD
:1077500010B50446186003D1BDE8104000F0D4BD58
:10776000012816D100F0D0FD002000F08DFF00F0C0
:1077700029FD234B0024C3F8FC4F022000F0B2FD8A
:107780002246FA21152000F067FEBDE8104000F007
:107790001BBFD0B900F0B8FD204600F075FF00F027
:1077A00011FD174B0220C3F8FC4F00F09BFD234650
:1077B00015204FF4FA624FF47A7101F04FF8114B33
:1077C000BDE81040586801F065B8022814D100F0F7
:1077D0009BFD002000F058FF00F0F4FC084B002255
:1077E0002046C3F8FC2F00F07DFD01F025FB064884
:1077F000BDE8104001F0F8BA10BD00BF4400002001
:1078000000100040780F00201C2C00200000000019
:107810002DE9F041BE4D2B68042B96B02E4613D0B7
:1078200000F082FC2B68012B044610D1B94A136882
:10783000C31A042B08D91060FEF796FA0446FFF726
:1078400087F8214600F09AFE16B0BDE8F0817BB9BA
:1078500001F0F4F9AF4A1368E31A042BF4D9146069
:10786000FEF73EFC0546FFF777F8294601F018F8C9
:107870003368022B62D102F063FA08B1032333604C
:10788000A44A1368E31A0E2BDED914600CABA24A8B
:1078900006251F4612F8011B03F8011B013DF9D113
:1078A0004FF48173ADF8363006238DF838309B4B9A
:1078B0009B491A68497901321A6011B10A2A40F3CA
:1078C0008D8000251D60974B97491A780DF10808A7
:1078D000404603F079FC431C8DF8393008238DF8BD
:1078E0003A300DF13B022B46834271DB16AB20EAA6
:1078F000E0701844032300F81D3C00F81C3C0D23E5
:1079000000F81B3C182300F81A3C002300F8193C2F
:1079100000230122CDE9003223213A4602A801F0DA
:107920006FFA824D01462B68814802AA01F002FAE3
:107930002B680133272BC8BF25232B603368032B0B
:1079400082D102F0FDF908B902233360714E336829
:10795000E31A042B7FF678AFFEF76EFF3460754EA6
:1079600096F8523105462BB1734A0023C2F83032E3
:1079700086F85231714A136840F2C921E31A8B42EA
:1079800040F2A4801460FEF7F3FF6D4BB3F8502073
:10799000002A3AD1684B1A79D3F8307286F88D20D4
:1079A0000222C6F88820002F44D1B6F85030002BB0
:1079B0005FD1644B1888B0F57A6F5EDDA0F57A6010
:1079C0001E23B0FBF3F05F306428A8BF642072E090
:1079D00018F8031002F8011B013385E719238DF80D
:1079E0003930FF238DF83A30FEF7FEFC8046FEF773
:1079F000B7FF0DF13B022B46434589DA182B87D0A0
:107A0000C15C02F8011B0133F6E7013800224FF098
:107A1000010C991810F8017F91F88C108F4218BF53
:107A200083F850C199180132077881F88C70142AB4
:107A3000EFD1AFE7052FA8BF05274FF00008B845E5
:107A4000B3DAA7EB080008F10108FFF767FD4FEA7A
:107A50004803F21801333344C1B2C0F3072082F85F
:107A60008C1083F88C00D6F888300233C6F8883042
:107A7000E5E7012386F850319BE740F6AC53984286
:107A800012DDA0F6AC5004F071F91FA3D3E9002376
:107A900004F000FB00222C4B04F01CF804F06AFCFC
:107AA000002891DA002006E0A0F548601E2390FB34
:107AB000F3F020EAE070254BC0B283F88C00244B31
:107AC00093F8512112B1002283F85121214A136801
:107AD000E31A0A2B7FF6B8AE1460FEF745FF1E4A84
:107AE0000023AB4208DBB2F85030002B3FF4ACAEC1
:107AF000012382F85031A7E6D118C45C81F88C408C
:107B00000133EEE7AFF300809A999999999917405C
:107B100044000020B80100201C2C0020BC010020E3
:107B2000940F0020780F00206DC500004000002059
:107B3000D6BE898ED4310020C0240020B40100209C
:107B4000242C0020680F002000002440142900206D
:107B5000682A0020B0010020CC2E00202DE9F04F33
:107B600093B08749874CDFF86CB2DFF86CA2DFF87E
:107B70006C92854D684603F027FB844909A803F001
:107B800023FB684602F0E4F809A802F0E7F8204673
:107B900002F0F0F8204601F027F97D4B7D4C4FF4C0
:107BA0009432CBE90123584602F014F97A497B4B11
:107BB0005046CAE9011302F00DF9794B7948C9E939
:107BC0000103484602F006F94FF6FF73764905F1C6
:107BD0000C00C5E90143754C02F024F9284602F077
:107BE000F9F84FF42852A4F87020714A71491278BC
:107BF00000274FF00208032304F18C002381A4F82E
:107C00000680E76003F0E0FA1926C4F888002046F1
:107C1000C4F8846084F8048002F0F0F82268664CAE
:107C2000ABF81C200422E2800522228142F60122C8
:107C3000A4F870200722C4F88420032340222046A1
:107C4000C4F88880E76084F88C2084F8048084F885
:107C50008D3002F0D3F82368584CABF81E30132156
:107C6000218642F63721A4F87010112310215020EC
:107C7000C4F8888042F6021284F88C10CBF85C803D
:107C8000E3804FF0120B012384F88D0020462282FE
:107C9000A4F808B0E360A4F85070C4F884602171BF
:107CA00002F0ACF82168464CAAF81C1021210123EF
:107CB000E1802221CAF85C3021814FF0320A42F67D
:107CC00019212046C4F88830E760A4F87010C4F881
:107CD000846084F88CA084F8048002F08FF8216816
:107CE000384CA9F81C100123312142F60212C9F8C0
:107CF0005C30E180E36034492282332304F1720076
:107D00002386A4F808A0A4F85070A4F870704FF06F
:107D10001408EF6502F086F82046C4F88460C4F8C1
:107D2000888084F804B002F069F8EB6D2168274C74
:107D300005EB43020133EB6503EB43039BB29183F5
:107D400004F1720003F131022149E280534423819E
:107D5000E760A4F8707002F065F80A2320462371EA
:107D6000C4F88460C4F8888002F048F8EB6D21689C
:107D700005EB430201339183EB6513B0BDE8F08F4F
:107D8000BCC400001C2C002074310020DDC40000A5
:107D90000F00001800283000002810001F000D18E8
:107DA0002F000F1800282000FEC40000C02700206C
:107DB000780F00206DC50000782D0020D431002000
:107DC00014290020CC2E002023C50000682A0020A2
:107DD00048C50000BC2B002028330020602700206D
:107DE000174A184B117CC3F80815D17BC3F80C1542
:107DF000927BC3F810254FF00042C3F824251249A6
:107E000012480022C3F84025C3F834151021C3F8E6
:107E10003815C3F85025C3F84405C3F84815402168
:107E2000C3F80022C3F804130721C3F85425C3F88C
:107E30000015074B83F8032308221A60704700BF20
:107E4000780F002000300040FC340020DC3400209B
:107E500000E100E0014B1878704700BFC00100202E
:107E600008B50C4BD3F818313BB10B4B1A7822B143
:107E700000221A70094B1B689847094B1A684FF08B
:107E8000A043C3F80825034A0023C2F81831054A65
:107E9000137008BD00300040C8010020CC01002054
:107EA000C4010020C001002070B50E4D2B78002BBE
:107EB000FCD10D4B0D4C1A600D4B4FF0A046C3F892
:107EC00034450C4CC3F84445C6F80C2502222070FA
:107ED0006170C3F848250122C3F838252A701A6159
:107EE00070BD00BFC0010020C4010020FC34002090
:107EF00000300040DC340020F0B5114C26462378D9
:107F000003F0FF07002BFAD10E4B0F4D19604FF015
:107F1000A04C0E4B0E4AC3F83425C3F84455CCF898
:107F20000C152870012102206F70C3F84815C3F8A2
:107F30003805217019613378002BFCD15078F0BDE1
:107F4000C0010020C4010020DC34002000300040CB
:107F5000FC34002070B50F4D2B78002BFCD10E4B5C
:107F60000E4C0F4EC3F834450E4CC3F844453260F6
:107F70004FF0A046C6F80C250A0A2070C9B26270FC
:107F80000322A170C3F848250122C3F838252A70BE
:107F90001A6170BDC001002000300040FC34002098
:107FA000C4010020DC340020F0B5144C26462378B0
:107FB00003F0FF07002BFAD1114ADFF850C0114D32
:107FC000114BC2F83435C2F84455CCF800104FF0CC
:107FD000A04CCCF80C152870012103206F70C2F85A
:107FE0004815C2F83805217011613278002AFCD199
:107FF00058789B7843EA0020F0BD00BFC001002004
:1080000000300040DC340020FC340020C40100209B
:10801000F0B5059E114D2C7804F0FF07002CFAD125
:108020000F4CDFF84CC0C4F834350E4BC4F844355F
:10803000CCF800604FF0A04CCCF80C6518705F7065
:1080400001231944C4F84835C4F8381506492B7083
:1080500023610A60054A1370F0BD00BFC001002013
:1080600000300040DC340020CC010020C80100209A
:10807000C4010020144BFA2210B50121C3F8402599
:1080800004200022C3F80425C3F80815C3F810051E
:108090004FF48030C3F804030C48C3F800124FF4C7
:1080A00080640460402480F80A430948026009485B
:1080B00002600948026009480260094802601960CC
:1080C000084B197010BD00BF00A0004000E100E0A7
:1080D000D0010020D8010020E0010020D4010020C0
:1080E000DC01002004020020054B4FF48062C3F83D
:1080F0008020044B01221A61034B00221A70704742
:1081000000E100E000A0004004020020044B012236
:108110009A64D3F84805034B1B681844704700BFA6
:1081200000A00040D0010020014B1868704700BF3C
:10813000D8010020154B70B500251D60144B154E5D
:108140001A60154B1860154B01245C6031600321E7
:10815000DC60C3F80455C3F808154FF48031C3F848
:108160001055C3F84005C3F804134FF48071C3F8E9
:1081700000120AB1C3F80042094A602182F81A13BA
:108180004FF08061116001221A6070BD0002002072
:10819000F8010020E4010020F401002000A00140CB
:1081A00000E100E010B5054B0C46114601221A60B3
:1081B000FFF7C0FF024B1C6010BD00BFF0010020A4
:1081C000F4010020014B01225A60704700A00140D9
:1081D000024B1860024B01221A607047E801002030
:1081E000EC01002010B51E4BD3F84021FAB100215C
:1081F0001C4AC3F84011106820B11B480068C3F83E
:1082000040051160194B1B689847194A13682BB336
:10821000012B13491AD1144B16481B6800680344FC
:10822000322B38BF3223C1F84035022313600C4B88
:10823000D3F8442192B10022C3F844210E4B1B68AD
:1082400063B10E4BBDE810401B681847022BEED1FE
:10825000054B1B68C1F840350023E7E710BD00BFA0
:1082600000A00140F0010020F4010020E401002002
:10827000EC010020E801002000020020FC010020A9
:10828000114B12490022C3F840210B68FA330B60EE
:108290000F4B1968013119600E4918680968884246
:1082A00011D30D480168013101601A600B4B196848
:1082B000013119601968B1F57A7F04D30848016863
:1082C000013101601A60704700A00040D001002019
:1082D000D401002048000020D8010020DC0100204B
:1082E000E0010020064B1B7882B03BB1054B1A68B9
:1082F000024401921968019A9142FBD102B0704781
:1083000004020020D8010020114BD3F850151A4662
:10831000E9B1D3F85015042903D0D3F850150C292E
:1083200008D1D2F85035042BFBD0D2F850350C2BA5
:10833000FBD070470022C3F80022C3F810210122AD
:108340001A61D3F85025002AFBD1C3F810217047D9
:1083500000100040F0B53A4C0226C4F88060394C59
:1083600001250427FA29C4F8FC5FC4F80C75C4F889
:108370000805204651D1C4F810653349C0F82415CA
:1083800001F14431C0F828153049C0F81C1501240A
:10839000C0F820150021C0F82C15C0F83045059D07
:1083A0004FF4847465F31344C4F30F4525F48875C2
:1083B00065F31F44C0F81445079D0C4665F3070498
:1083C000069D65F30F24224D05EA144545F4827598
:1083D00065F31F4463F359641E23C0F81845C0F8C1
:1083E0004435AA23C0F83425C0F83C3540F20713C1
:1083F000C0F838354FF0FF33C0F81011C0F80C1139
:10840000C0F808330823C0F80433124B19600C4B32
:10841000022283F801131A60F0BDB1F57A7F03D10F
:108420000021C0F81015A8E740F2E934A14201D1BB
:108430000321F6E7B1F5FA6F08BFC0F810559CE7C5
:1084400000E100E00010004011223344A70DE60EC9
:10845000F8FEFFFF1C0200201FB5064B1B680293AD
:108460000023CDE900330123FFF774FF05B05DF869
:1084700004FB00BF4C00002008B50C48D0F8503574
:10848000032B09D0D0F85035012B05D0D0F850354A
:10849000022B01D0FFF738FF1123C0F8003201236F
:1084A0004360034B05221A7008BD00BF0010004056
:1084B0000D02002008B50C48D0F85035092B05D026
:1084C000D0F850350A2B01D0FFF71EFF074B0022D2
:1084D0001A600323064AC0F8003202210123036018
:1084E0001170044A136008BD00100040080200200B
:1084F0000D0200201802002038B51C4C236813B16F
:10850000FFF712FE0546236823B1FFF70DFE401B5F
:108510000228F8D91648D0F85035092B05D0D0F8E4
:1085200050350A2B01D0FFF7EFFE124B00221A60E4
:108530000323C0F80032012303600F4B04221A709A
:108540000B4BD3F85025002AFBD0D3F850250C2A2A
:10855000F7D0D3F85025042AF3D0D3F8002242F004
:108560001802C3F800220123236038BD180200203E
:1085700000100040080200200D02002070B50F4DD1
:1085800000232A468B4213DB0D4C226812B1FFF701
:10859000CBFD0646236823B1FFF7C6FD801B0228EA
:1085A000F8D9084BC3F80455BDE87040FFF782BF07
:1085B000C45C02F8014B0133E4E700BF5C350020E6
:1085C0001802002000100040044B1A68044B1A6087
:1085D000044B054AC3F80425FFF74EBF28020020CC
:1085E00010020020001000405C360020104B70B5D7
:1085F000891000221D46914213DA0E4C226812B1F6
:10860000FFF792FD0646236823B1FFF78DFD801B1F
:108610000228F8D9084BC3F80455BDE87040FFF7AD
:108620006BBF50F8224043F8044B0132E3E700BF30
:108630005C3500201802002000100040034B186831
:10864000034B1B68C01A18BF01207047100200209E
:1086500028020020094B10B500221C466178B2EBBD
:10866000910F05DD064B1A68064B1A60084610BDCF
:1086700053F8041B40F822100132EFE75C3600206B
:108680002802002010020020014B1860704700BF34
:108690001C020020014B00221A60704720020020BB
:1086A000014B00221A607047240200200D4A00236B
:1086B000C2F80031C2F80431C2F80831C2F80C31F6
:1086C000C2F81031C2F81431C2F81831C2F81C31A6
:1086D000C2F82831C2F83031C2F83431024A13608E
:1086E000704700BF001000401802002070B44A4BD1
:1086F000196809B170BC0847484BD3F8042112B17E
:10870000C3F804110122D3F80C1100297CD0444A8B
:10871000444900261660C3F80C610A78022A0A460A
:108720001DD00878012805D13F4A13680133136032
:108730003E4B15E00878042817D13D49C3F80415CD
:10874000364B1946D3F85005022803D0D3F850050C
:108750000328F7D11123C1F8003205231370354BDC
:108760001B68002B4AD070BC18470878C0B2052897
:1087700044D12D4D2C6801342C602F4C2478002CD2
:108780003ED02E49D3F800340D782D4C2D499BB1A5
:1087900001232D480B60214633469D4210F8016BA2
:1087A00001F8016B03F10106F6DA1C4B9DB90521B6
:1087B000117001229A6021E04FF0FF3008602348D9
:1087C000214610F8016B01F8016B9D4203F101068F
:1087D000EBDB3346F5E7042111700322C3F80445AF
:1087E000C3F8002201221A60D3F85025002AFBD0DA
:1087F000D3F8002242F01802C3F8002270BC704780
:10880000012208709A6093E7002AF7D1044B1A609E
:1088100070BCFFF74BBF00BF1C02002000100040DF
:10882000180200200D020020280200202002002053
:108830005C360020240200200C02002014020020DC
:108840005C350020080200203C3500201C3500204B
:10885000014B1868704700BF1802002038B5154654
:1088600003221C46FFF7F8FD074B084A1D60146001
:10887000FFF7AAFE064B0022C3F800220122C3F82C
:1088800004251A6038BD00BF5400002048020020B3
:1088900000D00040014B1860704700BF5C00002012
:1088A00010B50B4B1B683BB90A4A8B4208DAC45C13
:1088B00002F8014B0133F8E7074A00238B4202DB41
:1088C000064B196010BDC45C02F8014B0133F5E79B
:1088D00048020020603B0020703B00203402002052
:1088E00070B50D4C25683F2D0EDC0C4A0023114657
:1088F0009D420ADC41F82500FFF716FC084B43F8BF
:10890000250023680133236070BD52F8046B864252
:10891000FAD00133ECE700BF2C02002060390020C0
:10892000603A00202DE9F843FFF7FEFB164C174B89
:108930002268D3F800E01649DFF8588000239946F2
:108940009A4205DCB9F1000F00D02260BDE8F8833F
:108950000D4603F1010C55F8047BC71B77456646AD
:1089600006D908EB8303964205D1013A4FF001097D
:1089700029466346E4E75F6843F8047B4F6841F8A3
:10898000047B0136EFE700BF2C02002050000020DE
:10899000603A0020603900202DE9F047FFF74EFED5
:1089A000A8B14F4C2046FFF755FE4E4B0528064612
:1089B000D3F8003425460ADD4BB14B4FD4F8020002
:1089C0003C6800BA002C4BD108B1FFF789FFFFF7D4
:1089D0009DFB464B46491A680C68851AA542884695
:1089E00001D282423AD3404D424A18602B68116846
:1089F000414C424F01338B422B60C4BF00232B609C
:108A00002E6892464FF01009002E4AD1FFF78AFFD8
:108A10003B6884F80190002BC4BF4B446370002373
:108A2000A370E370237163710123A371DAF800303E
:108A3000E371D8F8003026701A0E22721A1462728E
:108A40001A12A272E372FFF703FF0028FBD16178CC
:108A50002948FFF7CBFD2B6803B93B60BDE8F087E1
:108A6000013C274B53F824308342B0D1FFF75CFB25
:108A7000244B43F82400244B01221A60234B244A40
:108A80001E6029460023013311F8010B02F8010B87
:108A90009E42F8D13A681F4B13442A7803F8012C00
:108AA00095E706F10A0323703B6884F80190002BD8
:108AB000C8BF103306F1FF36C8BF6370104BE171B9
:108AC00053F8263063711A0EA2701A0CE2701A0A5B
:108AD0000123A3710F4B22719B5D2372B3E700BF8B
:108AE00060370020001000403802002040020020C3
:108AF000540000202C020020603B002034020020A3
:108B000060390020603A00204C0200203002002032
:108B100060380020603C0020F8B5FFF705FB0646F2
:108B2000FFF78CFD002848D0384C2046FFF792FD17
:108B3000374BD3F800340546002B3ED005283CDDEA
:108B4000D4F80230334A277A14681BBA002B35D187
:108B5000314A3249126809683148B21A8A421CD92E
:108B6000304A1660304AD2F80815C2F80031642243
:108B7000B1FBF2F302FB1313612B0ED91021220E6D
:108B8000827024FA01F20123C270220A037041703C
:108B9000027144718371FFF729FD8CB1234B1B498E
:108BA00001221A60224B1E4A1D600023013311F876
:108BB000010B02F8010B9D42F8D1F8BD9C42FCD19B
:108BC0001A4B124901221A60194B154A1D600023E5
:108BD000013311F8010B02F8010B9D42F8D10E4B45
:108BE000144D1E600F4B1E602B68002BE5DD124CF0
:108BF0002378BB42E1D0FFF72BFE0028DDD12968A6
:108C00002046BDE8F840FFF7F1BC00BF6037002008
:108C1000001000405C0000203C02002058000020B2
:108C2000603800204402002000D000404C020020A8
:108C30003002002034020020603B0020034B1B6800
:108C40000BB1FFF7A9BEFFF767BF00BF48020020C6
:108C500025280AD026280AD027280AD00B28B4BFF6
:108C60000423062303EB40007047022070471A20BC
:108C70007047502070470000F0B50E4C0E4F002397
:108C8000237022301E461A46002105780D41ED075B
:108C900004D55D18BD540132D2B201260131082934
:108CA000F3D10833DBB2282B00F10100ECD106B17F
:108CB0002270F0BD640000204A3E002090F82A3067
:108CC000252B04D124298CBF00200120704727299F
:108CD0000CD800EBD10001F0070190F82230012000
:108CE00000FA01F10B4208BF0020704700207047D6
:108CF00010B590F8292090F8273025241344B3FBB1
:108D0000F4F204FB1232D2B280F829201146FFF7A8
:108D1000D5FF40B9054B1978B2FBF1F301FB1322E3
:108D2000D2B2034B9A5C104610BD00BF6400002015
:108D30004A3E002038B5164C1D460302000EC4F80A
:108D40001C35C4F824052846FFF782FF45F040058E
:108D500040F25B63C4F80805C4F85455C4F83835CC
:108D60000C4BC4F83C350C480C4C00238B4208DB00
:108D7000074BC3F80405FFF79DFB094B02221A605D
:108D800038BDC55C04F8015BD55CC5540133EDE723
:108D90000010004055555500723E00203C3D00201B
:108DA0006802002030B50C480C4C00238B420CDBD1
:108DB0000B4BC3F80405D3F8002242F00402C3F8B9
:108DC0000022084B02221A6030BDC55C04F8015B2A
:108DD000D55CC5540133E9E7723E00203C3D0020DC
:108DE0000010004068020020044A431E053013F8BA
:108DF000011F02F8011B8342F9D170479E400020F9
:108E000010B500246FF3070463F303049DF80C30DE
:108E1000417063F386149DF8083063F3C714002390
:108E2000047000F8023F8B4201DBC81C10BDD45C0B
:108E300000F8014F0133F6E738B5254C0225C4F898
:108E4000805001F00FFCFFF725FCFFF729FC2148BB
:108E5000FFF71AFC002001F0BBFD1F4B012103228C
:108E6000C3F8FC1FC3F810251C4AC3F814251C4A7C
:108E7000C3F818251B4AC3F81C258E22C3F82425E5
:108E800040F203100022C3F82C25C3F83015C3F8B4
:108E900034059620C3F8440540F25B60C3F83805FA
:108EA0001148C3F83C050420C3F80C054FF6FF70C9
:108EB000C3F81021C3F80C21C3F808030A20C3F833
:108EC00004030A4B84F801232560196038BD00BFF4
:108ED00000E100E0E59C00000010004008011000E7
:108EE000FA00030200D6BE895555550050020020F5
:108EF0002DE9F8437C4C7D4F2046FFF7F9FE7C4B73
:108F00009A8B92B205461E4622B3D98DA28D91420C
:108F100020D19A8B4FF6FF71914240F0BA80728C4B
:108F200093F8263062842046B28CA28484F82630DE
:108F3000FFF7A2FE29462046FFF7C0FE40B96D4B61
:108F40001A78B5FBF2F302FB1355EDB26A4B5D5D87
:108F50000023B383694EDFF8D8810123336123698D
:108F60001A021B0EC6F81C252846C6F82435FFF742
:108F70006FFE45F0400540F25B63EDB2C6F80805B0
:108F8000C6F85455C6F838356369C6F83C35A38D24
:108F90000133A385FFF7BAF8594B1860C6F804856A
:108FA00094F83C30032B09D10025564884F83C50F6
:108FB000294601F000FF284601F00AFD94F83C50D4
:108FC000022D76D14D4BDFF86491474800250126EC
:108FD000C4F8DC5084F83C60C4F8E050C4F8E450B5
:108FE000C4F8E850C3F8049584F8EC6001F096FCEE
:108FF000454B464AC3F80C95C3F81085C3F81425B1
:10900000434AC3F804253046C3F8005201F0E0FC9F
:1090100031463C4801F0CFFEFFF72EFA3D4B0122CE
:109020001A60364BD3F8001241F00201C3F8001267
:10903000D3F8001241F00401C3F800123B68022B80
:1090400004D1354935483A60FFF774F8FFF76CF8FA
:10905000228C236BB2F57A7FA0EB03003DBF0A237D
:10906000534303F2DC5342F6EC4398420FD92C4BA6
:1090700001221A60FFF7A6F8FFF7DEFE94F83B30F6
:109080002BB9284A1368B3FA83F35B091360BDE870
:10909000F8839A8B244892B2A2831A8C22840021EE
:1090A000DA8BE283998301221B493A60FFF742F889
:1090B00050E7012DB0D1114B1C4EC3F804650A488E
:1090C00084F8EC5001F02AFC0F4B104AC3F80C65F1
:1090D000C3F81085C3F814250D4AC3F804252846A3
:1090E00001F076FC98E700BF984000205402002071
:1090F00020470020640000204A3E0020001000406D
:1091000074020020A03C002000F00040803F0020BE
:109110000100000168020020F18E0000FFFF2F0017
:109120005002002064020020FFFF1F00C8430020FF
:10913000B8410020304B70B50024304E1C70C3F88D
:109140009440A3F898402E4B86F8294017223046C9
:109150001A801C715C80B46386F83C40FFF78CFD7C
:10916000B485FEF7E1FF7063FEF7DEFF3369254D3E
:1091700030631A021B0EC5F81C25C5F8243596F875
:1091800029201046FFF764FD40F25B6342F0400285
:10919000C5F80805C5F85425C5F838357369C5F80C
:1091A0003C35738B184940F2E2405843A0F5967065
:1091B00022460001FEF7BEFF144BC5F80435144BE0
:1091C0005C70144B1C705C70FFF756F9D5F80032D8
:1091D00043F00203C5F80032D5F8003243F004032F
:1091E000C5F800320C4B01221A600C4A02231360AE
:1091F0000B4A136070BD00BFA03C002098400020C7
:10920000C642002000100040F18E0000B84100204E
:10921000723E00203C3D00206802002054020020E5
:109220005002002082B00023CDE9003321238DF8C5
:1092300000300923C370021D6B460C3013F8011B6C
:1092400002F8011B8242F9D1092002B0704782B0B6
:109250000023CDE9003321238DF800300823C370AB
:10926000021D6B460C3013F8011B02F8011B8242F1
:10927000F9D1092002B070471523C37040210023A3
:109280000422017143718371C2710172437283724E
:10929000C27209207047000004230D4A10B500F186
:1092A0000C01C370C31812F8014B03F8014B8B4239
:1092B000F9D1084B93F86620027393F86720427344
:1092C00093F86820827393F86930C3730D2010BD42
:1092D000F6400020984000201FB50523C3701848B1
:1092E00001F042FA6B46174A0824184612F8011B8F
:1092F00003F8011B013CD17AD971F7D1124901F071
:1093000061FA124B0222C3F8DC4083F83C20C3F818
:10931000E04003F15A01C3F8E440C3F8E8401A19E9
:1093200011F8010B82F8ED00221D1A440134C87AAD
:1093300082F8ED00042CF2D1012004B010BD00BF72
:1093400022410020EA400020644100209840002093
:1093500008B5FEF737FF044B01221A60FFF76CFDDA
:109360004FF0FF3008BD00BF5002002010B51E4A6C
:109370001E4804211346545C00F8014B01310C29AE
:10938000F9D1117B527B1A4C41EA0222A4F84E20FB
:1093900004F152010E22985C01F8010B0132162AE9
:1093A000F9D19A7D84F85A20DA7D84F85B2011483F
:1093B0001A7E5B7E84F85D3084F85C2001F0BEF993
:1093C00001F0A2F9030C84F86830B4F84E30A4F828
:1093D0006600000E84F86900A4F8503013B1044808
:1093E00001F08CFB042010BDB8410020D5400020C6
:1093F00098400020F6400020084A9179537943EACA
:1094000001230F2B04D1064B01221A600C20704758
:10941000752BFBD1024B0022F7E700BFB8410020BB
:10942000640200200D4A0E4B117983F82210517905
:1094300083F82310917983F82410D17983F82510CB
:10944000117A83F82610517A927A41EA0222DA855B
:109450004FF6FF729A834FF0FF307047B8410020FB
:10946000204700200F4B104A1979117659799879C5
:1094700041EA00215183D979187A41EA0021918388
:10948000597A987A41EA0021D183D97A187B41EA46
:1094900000211184597B9B7B41EA0323D3854FF044
:1094A000FF307047B84100202047002008B5064B28
:1094B0001A795879197A5B7A42EA002000F07CFC2C
:1094C0004FF0FF3008BD00BFB841002010B5324C4E
:1094D0002368002B01DA002010BD082B0AD12F4889
:1094E000FFF7B5FE2368092B06D12C48FFF79AFE3B
:1094F00080B9F0E70020F5E70C2B2CD1274AD37078
:1095000008231371FF23537193710423D371002334
:10951000137206200322002362F30703204A92F805
:10952000391092F8382061F3820362F3C3031B4AB7
:1095300003F0EF031370C3B253701A4BC3F8042542
:10954000194B02221A602368042B0CBF05234FF02D
:10955000FF332360C0E7042B03D11048FFF79CFEC4
:10956000C6E7052B03D10D48FFF7B6FEC0E7062B73
:1095700003D10A4A0120D370CCE7152B03D1074849
:10958000FFF77AFEB4E7072BB2D1044AD370074B3A
:109590001B7813710220BDE768000020723E002096
:1095A000984000200010004068020020E4450020A0
:1095B00070B53A4A3A4C0123002563F3070592F847
:1095C000393063F3820592F8383063F3C3052368BA
:1095D000002B6FF30415264603DBBDE87040FFF750
:1095E00075BFC8B12F4BDB78DBB24FF0FF31022BD8
:1095F000216012D1FFF7ACFE20602B4B1B68002BC3
:1096000047D12A4B0022EDB21D705A70284AC2F889
:109610000435284B02221A6070BD082B02D10923A1
:109620002360EAE7092BE8D0032B02D1FFF79EFE67
:10963000E2E7591F012901D80623F1E70A2B04D1DB
:10964000032382F83C300B23EAE70C2B02D1FFF70F
:10965000D3FED1E7122B02D113233360CDE7012BC8
:1096600003D1FFF7DFFE3060C7E713B9FFF7FAFE5B
:10967000F9E7142B01D11523EFE7152B02D1FFF7E2
:1096800015FFF0E7072B1FBF072222600A4A13705D
:10969000B3E7FFF71BFF0028B3DDBDE798400020CC
:1096A00068000020B841002064020020723E0020C3
:1096B0000010004068020020E44500202DE9F84336
:1096C0005F4F604C97F839305F4E4FF0010800252E
:1096D00068F3070563F3820597F8383063F3C30531
:1096E0006FF30415EBB2237000236370A370574B24
:1096F000C3F80445564B02221A607378032B0FD926
:10970000F078337940EA03207379B27943EA02238F
:10971000042B24D14F4AF11D00F0E0FB87F83B8079
:10972000737803F0FF00C3B94A4F3B7923B3FA883B
:109730000223D1B263F301050B1DDBB2EDB225703C
:109740006370130AE170237104236371A07107230E
:10975000D91F8A420BDC00233B71BDE8F883062B3E
:10976000DED13B463C4AF11D01F00AFBD8E7591C0B
:10977000785CE0540B46EBE7374E96F80090B9F171
:10978000000F1CD0022262F301057288D0B2011DC5
:10979000C9B2EDB225706170110AE0702171062125
:1097A0006171A371311D9A4203F1070002DC0023AD
:1097B0003370D2E711F8015B25540133F3E73846E3
:1097C00000F04EFF8046C8B1FA880223D1B263F39D
:1097D00001050B1DDBB2EDB225706370130AE17059
:1097E00023710423637184F806900723D91F8A42EA
:1097F000B1DD591C785CE0540B46F7E71049304660
:1098000001F0DCFA0028A8D0022363F30105738875
:10981000D9B20A1DD2B2EDB2257062701A0AE17097
:1098200022710622627184F80680321D434508F1D8
:109830000701BCDD12F8010B605408F10108F5E7DF
:1098400098400020723E0020B841002000100040E7
:1098500068020020C6420020A03C00200122002314
:1098600062F307030B4A92F8391092F8382061F33B
:10987000820362F3C303084A03F0EF03137000236B
:1098800053709370054BC3F80425054B02221A60F0
:10989000704700BF98400020723E0020001000403A
:1098A000680200202DE9F047764E0546336850B136
:1098B000022B06D1744AD2F8003223F00403C2F816
:1098C0000032BDE8F087012B40F0D580FEF71EFC8A
:1098D0006E4B6F4918601A686E4B1B68D21AA2F261
:1098E0008B23B3F5957F08D80B68500200EB02225A
:1098F000FD2000FB03231B0A0B60674F0A683B68CF
:10990000664C120A40F2523101338A423B6034D92C
:10991000052B07DDA38D642B04D9A020FEF758FC8E
:1099200000233B605E4F3B68012B10D1A28BA18BC3
:1099300040F2E240504344F6206CA0F54870594A8A
:109940000CFB01F10001FEF72DFC03233B60FEF749
:10995000EBFB94F83C302063534A544F43B35378A5
:1099600033B3534BD3F80014524B91B91A680132F8
:109970001A60FFF773FF504A76E040F2ED218A4209
:10998000D0D8052BCEDDA38D642BCBD96FF09F00F3
:10999000C4E700211960D4F8E4300133C4F8E4309E
:1099A000D4F8E43023B9D4F8E8300133C4F8E8300F
:1099B0000023354992F801C07B70D1F800045FFAAA
:1099C0008CFC0028D5D0107894F83980C0B20022E1
:1099D00060F30702C2F3C0095FFA89FEC64506D0EC
:1099E000D1F8003223F00403C1F8003269E794F89B
:1099F00038A0D1F80082C2F3800248F00408524532
:109A0000C1F8008209D12C4A5178023112F8010BB9
:109A1000F85401338B42F9DDADE700F003008EF01E
:109A2000010E032884F839E084F8389002D1BCF1A3
:109A3000000F06D1214B1B68002B08DBBCF1000F87
:109A400005D1C31E58425841FFF7B2FD93E7431EAC
:109A5000012B02D8FFF732FE8DE700288BD188E773
:109A60007B5D02F8013B01357B7802339D42F7DDD7
:109A70000223336025E7022B02BF034B0A4AC3F8D7
:109A800004251EE768020020001000407802002034
:109A90006000002074020020700200209840002026
:109AA00054020020F18E0000B8410020723E0020D8
:109AB00000F000406C0200203C3D002068000020C7
:109AC000F0B5794D2B6813F002028DB017D0774CAA
:109AD000774BC4F80435FEF7CFFCD4F80032754A52
